{
  "_format": "hh-sol-artifact-1",
  "contractName": "Frozr",
  "sourceName": "contracts/frozr.sol",
  "abi": [
    {
      "inputs": [],
      "stateMutability": "nonpayable",
      "type": "constructor"
    },
    {
      "anonymous": false,
      "inputs": [
        {
          "indexed": true,
          "internalType": "address",
          "name": "previousOwner",
          "type": "address"
        },
        {
          "indexed": true,
          "internalType": "address",
          "name": "newOwner",
          "type": "address"
        }
      ],
      "name": "OwnershipTransferred",
      "type": "event"
    },
    {
      "inputs": [
        {
          "internalType": "uint256",
          "name": "_daysToFreeze",
          "type": "uint256"
        }
      ],
      "name": "deposit",
      "outputs": [],
      "stateMutability": "payable",
      "type": "function"
    },
    {
      "inputs": [
        {
          "internalType": "uint256",
          "name": "",
          "type": "uint256"
        }
      ],
      "name": "deposits",
      "outputs": [
        {
          "internalType": "uint256",
          "name": "depositId",
          "type": "uint256"
        },
        {
          "internalType": "address",
          "name": "sender",
          "type": "address"
        },
        {
          "internalType": "bool",
          "name": "isComplete",
          "type": "bool"
        },
        {
          "internalType": "uint256",
          "name": "amount",
          "type": "uint256"
        },
        {
          "internalType": "uint256",
          "name": "startDate",
          "type": "uint256"
        },
        {
          "internalType": "uint256",
          "name": "releaseDate",
          "type": "uint256"
        }
      ],
      "stateMutability": "view",
      "type": "function"
    },
    {
      "inputs": [],
      "name": "owner",
      "outputs": [
        {
          "internalType": "address",
          "name": "",
          "type": "address"
        }
      ],
      "stateMutability": "view",
      "type": "function"
    },
    {
      "inputs": [],
      "name": "renounceOwnership",
      "outputs": [],
      "stateMutability": "nonpayable",
      "type": "function"
    },
    {
      "inputs": [
        {
          "internalType": "address",
          "name": "newOwner",
          "type": "address"
        }
      ],
      "name": "transferOwnership",
      "outputs": [],
      "stateMutability": "nonpayable",
      "type": "function"
    },
    {
      "inputs": [],
      "name": "viewDeposits",
      "outputs": [
        {
          "components": [
            {
              "internalType": "uint256",
              "name": "depositId",
              "type": "uint256"
            },
            {
              "internalType": "address",
              "name": "sender",
              "type": "address"
            },
            {
              "internalType": "bool",
              "name": "isComplete",
              "type": "bool"
            },
            {
              "internalType": "uint256",
              "name": "amount",
              "type": "uint256"
            },
            {
              "internalType": "uint256",
              "name": "startDate",
              "type": "uint256"
            },
            {
              "internalType": "uint256",
              "name": "releaseDate",
              "type": "uint256"
            }
          ],
          "internalType": "struct Frozr.Deposit[]",
          "name": "",
          "type": "tuple[]"
        }
      ],
      "stateMutability": "view",
      "type": "function"
    },
    {
      "inputs": [],
      "name": "viewFrozrBalance",
      "outputs": [
        {
          "internalType": "uint256",
          "name": "",
          "type": "uint256"
        }
      ],
      "stateMutability": "view",
      "type": "function"
    },
    {
      "inputs": [
        {
          "internalType": "uint256",
          "name": "_depositId",
          "type": "uint256"
        }
      ],
      "name": "withdraw",
      "outputs": [],
      "stateMutability": "payable",
      "type": "function"
    },
    {
      "inputs": [],
      "name": "withdrawFrozrBalance",
      "outputs": [],
      "stateMutability": "nonpayable",
      "type": "function"
    }
  ],
  "bytecode": "0x6080604052600060015534801561001557600080fd5b5061003261002761008060201b60201c565b61008860201b60201c565b33600560006101000a81548173ffffffffffffffffffffffffffffffffffffffff021916908373ffffffffffffffffffffffffffffffffffffffff160217905550600060048190555061014c565b600033905090565b60008060009054906101000a900473ffffffffffffffffffffffffffffffffffffffff169050816000806101000a81548173ffffffffffffffffffffffffffffffffffffffff021916908373ffffffffffffffffffffffffffffffffffffffff1602179055508173ffffffffffffffffffffffffffffffffffffffff168173ffffffffffffffffffffffffffffffffffffffff167f8be0079c531659141344cd1fd0a4f28419497f9722a3daafe3b4186f6b6457e060405160405180910390a35050565b6113f48061015b6000396000f3fe6080604052600436106100865760003560e01c80638da5cb5b116100595780638da5cb5b1461010057806392bff7671461012b578063b02c43d014610156578063b6b55f2514610198578063f2fde38b146101b457610086565b80632c3d43771461008b5780632e1a7d4d146100b6578063715018a6146100d25780637290ebfb146100e9575b600080fd5b34801561009757600080fd5b506100a06101dd565b6040516100ad9190610b52565b60405180910390f35b6100d060048036038101906100cb9190610b9e565b6101ef565b005b3480156100de57600080fd5b506100e76103e5565b005b3480156100f557600080fd5b506100fe6103f9565b005b34801561010c57600080fd5b50610115610476565b6040516101229190610c0c565b60405180910390f35b34801561013757600080fd5b5061014061049f565b60405161014d9190610d8a565b60405180910390f35b34801561016257600080fd5b5061017d60048036038101906101789190610b9e565b6106a3565b60405161018f96959493929190610dbb565b60405180910390f35b6101b260048036038101906101ad9190610b9e565b61070c565b005b3480156101c057600080fd5b506101db60048036038101906101d69190610e48565b61091d565b005b60006101e76109a1565b600454905090565b600015156002600083815260200190815260200160002060010160149054906101000a900460ff16151514610259576040517f08c379a000000000000000000000000000000000000000000000000000000000815260040161025090610ef8565b60405180910390fd5b3373ffffffffffffffffffffffffffffffffffffffff166002600083815260200190815260200160002060010160009054906101000a900473ffffffffffffffffffffffffffffffffffffffff1673ffffffffffffffffffffffffffffffffffffffff16146102fd576040517f08c379a00000000000000000000000000000000000000000000000000000000081526004016102f490610f8a565b60405180910390fd5b4260026000838152602001908152602001600020600401541115610356576040517f08c379a000000000000000000000000000000000000000000000000000000000815260040161034d9061101c565b60405180910390fd5b60016002600083815260200190815260200160002060010160146101000a81548160ff0219169083151502179055503373ffffffffffffffffffffffffffffffffffffffff166108fc60026000848152602001908152602001600020600201549081150290604051600060405180830381858888f193505050501580156103e1573d6000803e3d6000fd5b5050565b6103ed6109a1565b6103f76000610a1f565b565b6104016109a1565b600560009054906101000a900473ffffffffffffffffffffffffffffffffffffffff1673ffffffffffffffffffffffffffffffffffffffff166108fc6004549081150290604051600060405180830381858888f1935050505015801561046b573d6000803e3d6000fd5b506000600481905550565b60008060009054906101000a900473ffffffffffffffffffffffffffffffffffffffff16905090565b60606000600360003373ffffffffffffffffffffffffffffffffffffffff1673ffffffffffffffffffffffffffffffffffffffff16815260200190815260200160002080548060200260200160405190810160405280929190818152602001828054801561052c57602002820191906000526020600020905b815481526020019060010190808311610518575b505050505090506000815167ffffffffffffffff8111156105505761054f61103c565b5b60405190808252806020026020018201604052801561058957816020015b610576610aeb565b81526020019060019003908161056e5790505b50905060005b825181101561069a57600260008483815181106105af576105ae61106b565b5b602002602001015181526020019081526020016000206040518060c0016040529081600082015481526020016001820160009054906101000a900473ffffffffffffffffffffffffffffffffffffffff1673ffffffffffffffffffffffffffffffffffffffff1673ffffffffffffffffffffffffffffffffffffffff1681526020016001820160149054906101000a900460ff16151515158152602001600282015481526020016003820154815260200160048201548152505082828151811061067c5761067b61106b565b5b60200260200101819052508080610692906110c9565b91505061058f565b50809250505090565b60026020528060005260406000206000915090508060000154908060010160009054906101000a900473ffffffffffffffffffffffffffffffffffffffff16908060010160149054906101000a900460ff16908060020154908060030154908060040154905086565b6000341161074f576040517f08c379a00000000000000000000000000000000000000000000000000000000081526004016107469061115e565b60405180910390fd5b60008111610792576040517f08c379a0000000000000000000000000000000000000000000000000000000008152600401610789906111f0565b60405180910390fd5b6040518060c0016040528060015481526020013373ffffffffffffffffffffffffffffffffffffffff16815260200160001515815260200134815260200142815260200162015180836107e59190611210565b426107f0919061126a565b8152506002600060015481526020019081526020016000206000820151816000015560208201518160010160006101000a81548173ffffffffffffffffffffffffffffffffffffffff021916908373ffffffffffffffffffffffffffffffffffffffff16021790555060408201518160010160146101000a81548160ff021916908315150217905550606082015181600201556080820151816003015560a08201518160040155905050600360003373ffffffffffffffffffffffffffffffffffffffff1673ffffffffffffffffffffffffffffffffffffffff168152602001908152602001600020600154908060018154018082558091505060019003906000526020600020016000909190919091505560016000815480929190610915906110c9565b919050555050565b6109256109a1565b600073ffffffffffffffffffffffffffffffffffffffff168173ffffffffffffffffffffffffffffffffffffffff161415610995576040517f08c379a000000000000000000000000000000000000000000000000000000000815260040161098c90611332565b60405180910390fd5b61099e81610a1f565b50565b6109a9610ae3565b73ffffffffffffffffffffffffffffffffffffffff166109c7610476565b73ffffffffffffffffffffffffffffffffffffffff1614610a1d576040517f08c379a0000000000000000000000000000000000000000000000000000000008152600401610a149061139e565b60405180910390fd5b565b60008060009054906101000a900473ffffffffffffffffffffffffffffffffffffffff169050816000806101000a81548173ffffffffffffffffffffffffffffffffffffffff021916908373ffffffffffffffffffffffffffffffffffffffff1602179055508173ffffffffffffffffffffffffffffffffffffffff168173ffffffffffffffffffffffffffffffffffffffff167f8be0079c531659141344cd1fd0a4f28419497f9722a3daafe3b4186f6b6457e060405160405180910390a35050565b600033905090565b6040518060c0016040528060008152602001600073ffffffffffffffffffffffffffffffffffffffff1681526020016000151581526020016000815260200160008152602001600081525090565b6000819050919050565b610b4c81610b39565b82525050565b6000602082019050610b676000830184610b43565b92915050565b600080fd5b610b7b81610b39565b8114610b8657600080fd5b50565b600081359050610b9881610b72565b92915050565b600060208284031215610bb457610bb3610b6d565b5b6000610bc284828501610b89565b91505092915050565b600073ffffffffffffffffffffffffffffffffffffffff82169050919050565b6000610bf682610bcb565b9050919050565b610c0681610beb565b82525050565b6000602082019050610c216000830184610bfd565b92915050565b600081519050919050565b600082825260208201905092915050565b6000819050602082019050919050565b610c5c81610b39565b82525050565b610c6b81610beb565b82525050565b60008115159050919050565b610c8681610c71565b82525050565b60c082016000820151610ca26000850182610c53565b506020820151610cb56020850182610c62565b506040820151610cc86040850182610c7d565b506060820151610cdb6060850182610c53565b506080820151610cee6080850182610c53565b5060a0820151610d0160a0850182610c53565b50505050565b6000610d138383610c8c565b60c08301905092915050565b6000602082019050919050565b6000610d3782610c27565b610d418185610c32565b9350610d4c83610c43565b8060005b83811015610d7d578151610d648882610d07565b9750610d6f83610d1f565b925050600181019050610d50565b5085935050505092915050565b60006020820190508181036000830152610da48184610d2c565b905092915050565b610db581610c71565b82525050565b600060c082019050610dd06000830189610b43565b610ddd6020830188610bfd565b610dea6040830187610dac565b610df76060830186610b43565b610e046080830185610b43565b610e1160a0830184610b43565b979650505050505050565b610e2581610beb565b8114610e3057600080fd5b50565b600081359050610e4281610e1c565b92915050565b600060208284031215610e5e57610e5d610b6d565b5b6000610e6c84828501610e33565b91505092915050565b600082825260208201905092915050565b7f54686973206465706f7369742068617320616c7265616479206265656e20776960008201527f7468647261776e00000000000000000000000000000000000000000000000000602082015250565b6000610ee2602783610e75565b9150610eed82610e86565b604082019050919050565b60006020820190508181036000830152610f1181610ed5565b9050919050565b7f596f7520617265206e6f7420746865206f776e6572206f66207468697320646560008201527f706f736974000000000000000000000000000000000000000000000000000000602082015250565b6000610f74602583610e75565b9150610f7f82610f18565b604082019050919050565b60006020820190508181036000830152610fa381610f67565b9050919050565b7f54686973206465706f736974206973206e6f742079657420726561647920746f60008201527f2062652077697468647261776e00000000000000000000000000000000000000602082015250565b6000611006602d83610e75565b915061101182610faa565b604082019050919050565b6000602082019050818103600083015261103581610ff9565b9050919050565b7f4e487b7100000000000000000000000000000000000000000000000000000000600052604160045260246000fd5b7f4e487b7100000000000000000000000000000000000000000000000000000000600052603260045260246000fd5b7f4e487b7100000000000000000000000000000000000000000000000000000000600052601160045260246000fd5b60006110d482610b39565b91507fffffffffffffffffffffffffffffffffffffffffffffffffffffffffffffffff8214156111075761110661109a565b5b600182019050919050565b7f596f75206d7573742073656e6420736f6d652065746865720000000000000000600082015250565b6000611148601883610e75565b915061115382611112565b602082019050919050565b600060208201905081810360008301526111778161113b565b9050919050565b7f596f75206d75737420667265657a6520666f72206174206c656173742031206460008201527f6179000000000000000000000000000000000000000000000000000000000000602082015250565b60006111da602283610e75565b91506111e58261117e565b604082019050919050565b60006020820190508181036000830152611209816111cd565b9050919050565b600061121b82610b39565b915061122683610b39565b9250817fffffffffffffffffffffffffffffffffffffffffffffffffffffffffffffffff048311821515161561125f5761125e61109a565b5b828202905092915050565b600061127582610b39565b915061128083610b39565b9250827fffffffffffffffffffffffffffffffffffffffffffffffffffffffffffffffff038211156112b5576112b461109a565b5b828201905092915050565b7f4f776e61626c653a206e6577206f776e657220697320746865207a65726f206160008201527f6464726573730000000000000000000000000000000000000000000000000000602082015250565b600061131c602683610e75565b9150611327826112c0565b604082019050919050565b6000602082019050818103600083015261134b8161130f565b9050919050565b7f4f776e61626c653a2063616c6c6572206973206e6f7420746865206f776e6572600082015250565b6000611388602083610e75565b915061139382611352565b602082019050919050565b600060208201905081810360008301526113b78161137b565b905091905056fea264697066735822122013502e63a154f3ea0304514a07607666082cdfef891133070d380708e86a2df264736f6c634300080b0033",
  "linkReferences": {},
  "deployedLinkReferences": {}
}