{
  "_format": "hh-sol-artifact-1",
  "contractName": "Frozr",
  "sourceName": "contracts/frozr.sol",
  "abi": [
    {
      "inputs": [],
      "stateMutability": "nonpayable",
      "type": "constructor"
    },
    {
      "anonymous": false,
      "inputs": [
        {
          "indexed": true,
          "internalType": "address",
          "name": "from",
          "type": "address"
        },
        {
          "indexed": false,
          "internalType": "uint256",
          "name": "amount",
          "type": "uint256"
        }
      ],
      "name": "DepositEvent",
      "type": "event"
    },
    {
      "anonymous": false,
      "inputs": [
        {
          "indexed": true,
          "internalType": "address",
          "name": "previousOwner",
          "type": "address"
        },
        {
          "indexed": true,
          "internalType": "address",
          "name": "newOwner",
          "type": "address"
        }
      ],
      "name": "OwnershipTransferred",
      "type": "event"
    },
    {
      "anonymous": false,
      "inputs": [
        {
          "indexed": true,
          "internalType": "address",
          "name": "from",
          "type": "address"
        },
        {
          "indexed": false,
          "internalType": "uint256",
          "name": "amount",
          "type": "uint256"
        }
      ],
      "name": "WithdrawEvent",
      "type": "event"
    },
    {
      "inputs": [
        {
          "internalType": "uint256",
          "name": "_daysToFreeze",
          "type": "uint256"
        }
      ],
      "name": "deposit",
      "outputs": [],
      "stateMutability": "payable",
      "type": "function"
    },
    {
      "inputs": [
        {
          "internalType": "uint256",
          "name": "",
          "type": "uint256"
        }
      ],
      "name": "deposits",
      "outputs": [
        {
          "internalType": "address",
          "name": "sender",
          "type": "address"
        },
        {
          "internalType": "bool",
          "name": "isComplete",
          "type": "bool"
        },
        {
          "internalType": "uint256",
          "name": "amount",
          "type": "uint256"
        },
        {
          "internalType": "uint256",
          "name": "releaseDate",
          "type": "uint256"
        }
      ],
      "stateMutability": "view",
      "type": "function"
    },
    {
      "inputs": [],
      "name": "owner",
      "outputs": [
        {
          "internalType": "address",
          "name": "",
          "type": "address"
        }
      ],
      "stateMutability": "view",
      "type": "function"
    },
    {
      "inputs": [],
      "name": "renounceOwnership",
      "outputs": [],
      "stateMutability": "nonpayable",
      "type": "function"
    },
    {
      "inputs": [
        {
          "internalType": "address",
          "name": "newOwner",
          "type": "address"
        }
      ],
      "name": "transferOwnership",
      "outputs": [],
      "stateMutability": "nonpayable",
      "type": "function"
    },
    {
      "inputs": [],
      "name": "viewDeposits",
      "outputs": [
        {
          "components": [
            {
              "internalType": "address",
              "name": "sender",
              "type": "address"
            },
            {
              "internalType": "bool",
              "name": "isComplete",
              "type": "bool"
            },
            {
              "internalType": "uint256",
              "name": "amount",
              "type": "uint256"
            },
            {
              "internalType": "uint256",
              "name": "releaseDate",
              "type": "uint256"
            }
          ],
          "internalType": "struct Frozr.Deposit[]",
          "name": "",
          "type": "tuple[]"
        }
      ],
      "stateMutability": "view",
      "type": "function"
    },
    {
      "inputs": [],
      "name": "viewFrozrBalance",
      "outputs": [
        {
          "internalType": "uint256",
          "name": "",
          "type": "uint256"
        }
      ],
      "stateMutability": "view",
      "type": "function"
    },
    {
      "inputs": [
        {
          "internalType": "uint256",
          "name": "_depositId",
          "type": "uint256"
        }
      ],
      "name": "withdraw",
      "outputs": [],
      "stateMutability": "payable",
      "type": "function"
    },
    {
      "inputs": [],
      "name": "withdrawFrozrBalance",
      "outputs": [],
      "stateMutability": "nonpayable",
      "type": "function"
    }
  ],
  "bytecode": "0x6080604052600060015534801561001557600080fd5b5061003261002761008060201b60201c565b61008860201b60201c565b33600560006101000a81548173ffffffffffffffffffffffffffffffffffffffff021916908373ffffffffffffffffffffffffffffffffffffffff160217905550600060048190555061014c565b600033905090565b60008060009054906101000a900473ffffffffffffffffffffffffffffffffffffffff169050816000806101000a81548173ffffffffffffffffffffffffffffffffffffffff021916908373ffffffffffffffffffffffffffffffffffffffff1602179055508173ffffffffffffffffffffffffffffffffffffffff168173ffffffffffffffffffffffffffffffffffffffff167f8be0079c531659141344cd1fd0a4f28419497f9722a3daafe3b4186f6b6457e060405160405180910390a35050565b6114128061015b6000396000f3fe6080604052600436106100865760003560e01c80638da5cb5b116100595780638da5cb5b1461010057806392bff7671461012b578063b02c43d014610156578063b6b55f2514610196578063f2fde38b146101b257610086565b80632c3d43771461008b5780632e1a7d4d146100b6578063715018a6146100d25780637290ebfb146100e9575b600080fd5b34801561009757600080fd5b506100a06101db565b6040516100ad9190610bb2565b60405180910390f35b6100d060048036038101906100cb9190610bfe565b6101ed565b005b3480156100de57600080fd5b506100e7610447565b005b3480156100f557600080fd5b506100fe61045b565b005b34801561010c57600080fd5b506101156104d8565b6040516101229190610c6c565b60405180910390f35b34801561013757600080fd5b50610140610501565b60405161014d9190610dc4565b60405180910390f35b34801561016257600080fd5b5061017d60048036038101906101789190610bfe565b6106f1565b60405161018d9493929190610df5565b60405180910390f35b6101b060048036038101906101ab9190610bfe565b61074e565b005b3480156101be57600080fd5b506101d960048036038101906101d49190610e66565b61098b565b005b60006101e5610a0f565b600454905090565b600015156002600083815260200190815260200160002060000160149054906101000a900460ff16151514610257576040517f08c379a000000000000000000000000000000000000000000000000000000000815260040161024e90610f16565b60405180910390fd5b3373ffffffffffffffffffffffffffffffffffffffff166002600083815260200190815260200160002060000160009054906101000a900473ffffffffffffffffffffffffffffffffffffffff1673ffffffffffffffffffffffffffffffffffffffff16146102fb576040517f08c379a00000000000000000000000000000000000000000000000000000000081526004016102f290610fa8565b60405180910390fd5b4260026000838152602001908152602001600020600201541115610354576040517f08c379a000000000000000000000000000000000000000000000000000000000815260040161034b9061103a565b60405180910390fd5b60016002600083815260200190815260200160002060000160146101000a81548160ff0219169083151502179055503373ffffffffffffffffffffffffffffffffffffffff166108fc60026000848152602001908152602001600020600101549081150290604051600060405180830381858888f193505050501580156103df573d6000803e3d6000fd5b503373ffffffffffffffffffffffffffffffffffffffff167f5dba113b49cfa7c90315e8e604e6b506f7abcb909b01dcb19ec39005086e68fc600260008481526020019081526020016000206001015460405161043c9190610bb2565b60405180910390a250565b61044f610a0f565b6104596000610a8d565b565b610463610a0f565b600560009054906101000a900473ffffffffffffffffffffffffffffffffffffffff1673ffffffffffffffffffffffffffffffffffffffff166108fc6004549081150290604051600060405180830381858888f193505050501580156104cd573d6000803e3d6000fd5b506000600481905550565b60008060009054906101000a900473ffffffffffffffffffffffffffffffffffffffff16905090565b60606000600360003373ffffffffffffffffffffffffffffffffffffffff1673ffffffffffffffffffffffffffffffffffffffff16815260200190815260200160002080548060200260200160405190810160405280929190818152602001828054801561058e57602002820191906000526020600020905b81548152602001906001019080831161057a575b505050505090506000815167ffffffffffffffff8111156105b2576105b161105a565b5b6040519080825280602002602001820160405280156105eb57816020015b6105d8610b59565b8152602001906001900390816105d05790505b50905060005b82518110156106e8576002600084838151811061061157610610611089565b5b602002602001015181526020019081526020016000206040518060800160405290816000820160009054906101000a900473ffffffffffffffffffffffffffffffffffffffff1673ffffffffffffffffffffffffffffffffffffffff1673ffffffffffffffffffffffffffffffffffffffff1681526020016000820160149054906101000a900460ff16151515158152602001600182015481526020016002820154815250508282815181106106ca576106c9611089565b5b602002602001018190525080806106e0906110e7565b9150506105f1565b50809250505090565b60026020528060005260406000206000915090508060000160009054906101000a900473ffffffffffffffffffffffffffffffffffffffff16908060000160149054906101000a900460ff16908060010154908060020154905084565b60003411610791576040517f08c379a00000000000000000000000000000000000000000000000000000000081526004016107889061117c565b60405180910390fd5b600081116107d4576040517f08c379a00000000000000000000000000000000000000000000000000000000081526004016107cb9061120e565b60405180910390fd5b60405180608001604052803373ffffffffffffffffffffffffffffffffffffffff1681526020016000151581526020013481526020016201518083610819919061122e565b426108249190611288565b81525060026000600154815260200190815260200160002060008201518160000160006101000a81548173ffffffffffffffffffffffffffffffffffffffff021916908373ffffffffffffffffffffffffffffffffffffffff16021790555060208201518160000160146101000a81548160ff0219169083151502179055506040820151816001015560608201518160020155905050600360003373ffffffffffffffffffffffffffffffffffffffff1673ffffffffffffffffffffffffffffffffffffffff168152602001908152602001600020600154908060018154018082558091505060019003906000526020600020016000909190919091505560016000815480929190610935906110e7565b91905055503373ffffffffffffffffffffffffffffffffffffffff167f2d8a08b6430a894aea608bcaa6013d5d3e263bc49110605e4d4ba76930ae5c29346040516109809190610bb2565b60405180910390a250565b610993610a0f565b600073ffffffffffffffffffffffffffffffffffffffff168173ffffffffffffffffffffffffffffffffffffffff161415610a03576040517f08c379a00000000000000000000000000000000000000000000000000000000081526004016109fa90611350565b60405180910390fd5b610a0c81610a8d565b50565b610a17610b51565b73ffffffffffffffffffffffffffffffffffffffff16610a356104d8565b73ffffffffffffffffffffffffffffffffffffffff1614610a8b576040517f08c379a0000000000000000000000000000000000000000000000000000000008152600401610a82906113bc565b60405180910390fd5b565b60008060009054906101000a900473ffffffffffffffffffffffffffffffffffffffff169050816000806101000a81548173ffffffffffffffffffffffffffffffffffffffff021916908373ffffffffffffffffffffffffffffffffffffffff1602179055508173ffffffffffffffffffffffffffffffffffffffff168173ffffffffffffffffffffffffffffffffffffffff167f8be0079c531659141344cd1fd0a4f28419497f9722a3daafe3b4186f6b6457e060405160405180910390a35050565b600033905090565b6040518060800160405280600073ffffffffffffffffffffffffffffffffffffffff16815260200160001515815260200160008152602001600081525090565b6000819050919050565b610bac81610b99565b82525050565b6000602082019050610bc76000830184610ba3565b92915050565b600080fd5b610bdb81610b99565b8114610be657600080fd5b50565b600081359050610bf881610bd2565b92915050565b600060208284031215610c1457610c13610bcd565b5b6000610c2284828501610be9565b91505092915050565b600073ffffffffffffffffffffffffffffffffffffffff82169050919050565b6000610c5682610c2b565b9050919050565b610c6681610c4b565b82525050565b6000602082019050610c816000830184610c5d565b92915050565b600081519050919050565b600082825260208201905092915050565b6000819050602082019050919050565b610cbc81610c4b565b82525050565b60008115159050919050565b610cd781610cc2565b82525050565b610ce681610b99565b82525050565b608082016000820151610d026000850182610cb3565b506020820151610d156020850182610cce565b506040820151610d286040850182610cdd565b506060820151610d3b6060850182610cdd565b50505050565b6000610d4d8383610cec565b60808301905092915050565b6000602082019050919050565b6000610d7182610c87565b610d7b8185610c92565b9350610d8683610ca3565b8060005b83811015610db7578151610d9e8882610d41565b9750610da983610d59565b925050600181019050610d8a565b5085935050505092915050565b60006020820190508181036000830152610dde8184610d66565b905092915050565b610def81610cc2565b82525050565b6000608082019050610e0a6000830187610c5d565b610e176020830186610de6565b610e246040830185610ba3565b610e316060830184610ba3565b95945050505050565b610e4381610c4b565b8114610e4e57600080fd5b50565b600081359050610e6081610e3a565b92915050565b600060208284031215610e7c57610e7b610bcd565b5b6000610e8a84828501610e51565b91505092915050565b600082825260208201905092915050565b7f54686973206465706f7369742068617320616c7265616479206265656e20776960008201527f7468647261776e00000000000000000000000000000000000000000000000000602082015250565b6000610f00602783610e93565b9150610f0b82610ea4565b604082019050919050565b60006020820190508181036000830152610f2f81610ef3565b9050919050565b7f596f7520617265206e6f7420746865206f776e6572206f66207468697320646560008201527f706f736974000000000000000000000000000000000000000000000000000000602082015250565b6000610f92602583610e93565b9150610f9d82610f36565b604082019050919050565b60006020820190508181036000830152610fc181610f85565b9050919050565b7f54686973206465706f736974206973206e6f742079657420726561647920746f60008201527f2062652077697468647261776e00000000000000000000000000000000000000602082015250565b6000611024602d83610e93565b915061102f82610fc8565b604082019050919050565b6000602082019050818103600083015261105381611017565b9050919050565b7f4e487b7100000000000000000000000000000000000000000000000000000000600052604160045260246000fd5b7f4e487b7100000000000000000000000000000000000000000000000000000000600052603260045260246000fd5b7f4e487b7100000000000000000000000000000000000000000000000000000000600052601160045260246000fd5b60006110f282610b99565b91507fffffffffffffffffffffffffffffffffffffffffffffffffffffffffffffffff821415611125576111246110b8565b5b600182019050919050565b7f596f75206d7573742073656e6420736f6d652065746865720000000000000000600082015250565b6000611166601883610e93565b915061117182611130565b602082019050919050565b6000602082019050818103600083015261119581611159565b9050919050565b7f596f75206d75737420667265657a6520666f72206174206c656173742031206460008201527f6179000000000000000000000000000000000000000000000000000000000000602082015250565b60006111f8602283610e93565b91506112038261119c565b604082019050919050565b60006020820190508181036000830152611227816111eb565b9050919050565b600061123982610b99565b915061124483610b99565b9250817fffffffffffffffffffffffffffffffffffffffffffffffffffffffffffffffff048311821515161561127d5761127c6110b8565b5b828202905092915050565b600061129382610b99565b915061129e83610b99565b9250827fffffffffffffffffffffffffffffffffffffffffffffffffffffffffffffffff038211156112d3576112d26110b8565b5b828201905092915050565b7f4f776e61626c653a206e6577206f776e657220697320746865207a65726f206160008201527f6464726573730000000000000000000000000000000000000000000000000000602082015250565b600061133a602683610e93565b9150611345826112de565b604082019050919050565b600060208201905081810360008301526113698161132d565b9050919050565b7f4f776e61626c653a2063616c6c6572206973206e6f7420746865206f776e6572600082015250565b60006113a6602083610e93565b91506113b182611370565b602082019050919050565b600060208201905081810360008301526113d581611399565b905091905056fea2646970667358221220a2bab4d5908df3c66166ae8efa4fa1b809d8146dc60c18fc5cae69a4aa4db9e664736f6c634300080b0033",
  "linkReferences": {},
  "deployedLinkReferences": {}
}