{
  "_format": "hh-sol-artifact-1",
  "contractName": "Frozr",
  "sourceName": "contracts/frozr.sol",
  "abi": [
    {
      "inputs": [
        {
          "internalType": "uint256",
          "name": "_daysToFreeze",
          "type": "uint256"
        }
      ],
      "name": "deposit",
      "outputs": [],
      "stateMutability": "payable",
      "type": "function"
    },
    {
      "inputs": [],
      "name": "viewDeposits",
      "outputs": [
        {
          "components": [
            {
              "internalType": "address",
              "name": "sender",
              "type": "address"
            },
            {
              "internalType": "bool",
              "name": "isComplete",
              "type": "bool"
            },
            {
              "internalType": "uint256",
              "name": "depositId",
              "type": "uint256"
            },
            {
              "internalType": "uint256",
              "name": "amount",
              "type": "uint256"
            },
            {
              "internalType": "uint256",
              "name": "startDate",
              "type": "uint256"
            },
            {
              "internalType": "uint256",
              "name": "releaseDate",
              "type": "uint256"
            }
          ],
          "internalType": "struct Frozr.Deposit[]",
          "name": "",
          "type": "tuple[]"
        }
      ],
      "stateMutability": "view",
      "type": "function"
    },
    {
      "inputs": [
        {
          "internalType": "uint256",
          "name": "_depositId",
          "type": "uint256"
        }
      ],
      "name": "withdraw",
      "outputs": [],
      "stateMutability": "payable",
      "type": "function"
    }
  ],
  "bytecode": "0x60806040526000805534801561001457600080fd5b50610d57806100246000396000f3fe6080604052600436106100345760003560e01c80632e1a7d4d1461003957806392bff76714610055578063b6b55f2514610080575b600080fd5b610053600480360381019061004e919061072d565b61009c565b005b34801561006157600080fd5b5061006a610291565b60405161007791906108ef565b60405180910390f35b61009a6004803603810190610095919061072d565b610495565b005b600015156001600083815260200190815260200160002060000160149054906101000a900460ff16151514610106576040517f08c379a00000000000000000000000000000000000000000000000000000000081526004016100fd90610994565b60405180910390fd5b3373ffffffffffffffffffffffffffffffffffffffff166001600083815260200190815260200160002060000160009054906101000a900473ffffffffffffffffffffffffffffffffffffffff1673ffffffffffffffffffffffffffffffffffffffff16146101aa576040517f08c379a00000000000000000000000000000000000000000000000000000000081526004016101a190610a26565b60405180910390fd5b4260016000838152602001908152602001600020600401541115610203576040517f08c379a00000000000000000000000000000000000000000000000000000000081526004016101fa90610ab8565b60405180910390fd5b600180600083815260200190815260200160002060000160146101000a81548160ff0219169083151502179055503373ffffffffffffffffffffffffffffffffffffffff166108fc60016000848152602001908152602001600020600201549081150290604051600060405180830381858888f1935050505015801561028d573d6000803e3d6000fd5b5050565b60606000600260003373ffffffffffffffffffffffffffffffffffffffff1673ffffffffffffffffffffffffffffffffffffffff16815260200190815260200160002080548060200260200160405190810160405280929190818152602001828054801561031e57602002820191906000526020600020905b81548152602001906001019080831161030a575b505050505090506000815167ffffffffffffffff81111561034257610341610ad8565b5b60405190808252806020026020018201604052801561037b57816020015b6103686106a4565b8152602001906001900390816103605790505b50905060005b825181101561048c57600160008483815181106103a1576103a0610b07565b5b602002602001015181526020019081526020016000206040518060c00160405290816000820160009054906101000a900473ffffffffffffffffffffffffffffffffffffffff1673ffffffffffffffffffffffffffffffffffffffff1673ffffffffffffffffffffffffffffffffffffffff1681526020016000820160149054906101000a900460ff1615151515815260200160018201548152602001600282015481526020016003820154815260200160048201548152505082828151811061046e5761046d610b07565b5b6020026020010181905250808061048490610b65565b915050610381565b50809250505090565b600034116104d8576040517f08c379a00000000000000000000000000000000000000000000000000000000081526004016104cf90610bf9565b60405180910390fd5b6000811161051b576040517f08c379a000000000000000000000000000000000000000000000000000000000815260040161051290610c8b565b60405180910390fd5b6040518060c001604052803373ffffffffffffffffffffffffffffffffffffffff1681526020016000151581526020016000548152602001348152602001428152602001620151808361056e9190610cab565b426105799190610ced565b815250600160008054815260200190815260200160002060008201518160000160006101000a81548173ffffffffffffffffffffffffffffffffffffffff021916908373ffffffffffffffffffffffffffffffffffffffff16021790555060208201518160000160146101000a81548160ff02191690831515021790555060408201518160010155606082015181600201556080820151816003015560a08201518160040155905050600260003373ffffffffffffffffffffffffffffffffffffffff1673ffffffffffffffffffffffffffffffffffffffff168152602001908152602001600020600054908060018154018082558091505060019003906000526020600020016000909190919091505560008081548092919061069c90610b65565b919050555050565b6040518060c00160405280600073ffffffffffffffffffffffffffffffffffffffff168152602001600015158152602001600081526020016000815260200160008152602001600081525090565b600080fd5b6000819050919050565b61070a816106f7565b811461071557600080fd5b50565b60008135905061072781610701565b92915050565b600060208284031215610743576107426106f2565b5b600061075184828501610718565b91505092915050565b600081519050919050565b600082825260208201905092915050565b6000819050602082019050919050565b600073ffffffffffffffffffffffffffffffffffffffff82169050919050565b60006107b182610786565b9050919050565b6107c1816107a6565b82525050565b60008115159050919050565b6107dc816107c7565b82525050565b6107eb816106f7565b82525050565b60c08201600082015161080760008501826107b8565b50602082015161081a60208501826107d3565b50604082015161082d60408501826107e2565b50606082015161084060608501826107e2565b50608082015161085360808501826107e2565b5060a082015161086660a08501826107e2565b50505050565b600061087883836107f1565b60c08301905092915050565b6000602082019050919050565b600061089c8261075a565b6108a68185610765565b93506108b183610776565b8060005b838110156108e25781516108c9888261086c565b97506108d483610884565b9250506001810190506108b5565b5085935050505092915050565b600060208201905081810360008301526109098184610891565b905092915050565b600082825260208201905092915050565b7f54686973206465706f7369742068617320616c7265616479206265656e20776960008201527f7468647261776e00000000000000000000000000000000000000000000000000602082015250565b600061097e602783610911565b915061098982610922565b604082019050919050565b600060208201905081810360008301526109ad81610971565b9050919050565b7f596f7520617265206e6f7420746865206f776e6572206f66207468697320646560008201527f706f736974000000000000000000000000000000000000000000000000000000602082015250565b6000610a10602583610911565b9150610a1b826109b4565b604082019050919050565b60006020820190508181036000830152610a3f81610a03565b9050919050565b7f54686973206465706f736974206973206e6f742079657420726561647920746f60008201527f2062652077697468647261776e00000000000000000000000000000000000000602082015250565b6000610aa2602d83610911565b9150610aad82610a46565b604082019050919050565b60006020820190508181036000830152610ad181610a95565b9050919050565b7f4e487b7100000000000000000000000000000000000000000000000000000000600052604160045260246000fd5b7f4e487b7100000000000000000000000000000000000000000000000000000000600052603260045260246000fd5b7f4e487b7100000000000000000000000000000000000000000000000000000000600052601160045260246000fd5b6000610b70826106f7565b91507fffffffffffffffffffffffffffffffffffffffffffffffffffffffffffffffff8203610ba257610ba1610b36565b5b600182019050919050565b7f4e6f6e2d7a65726f20616d6f756e742072657175697265640000000000000000600082015250565b6000610be3601883610911565b9150610bee82610bad565b602082019050919050565b60006020820190508181036000830152610c1281610bd6565b9050919050565b7f596f75206d7573742073746f72652066756e647320666f72206174206c65617360008201527f7420312064617900000000000000000000000000000000000000000000000000602082015250565b6000610c75602783610911565b9150610c8082610c19565b604082019050919050565b60006020820190508181036000830152610ca481610c68565b9050919050565b6000610cb6826106f7565b9150610cc1836106f7565b9250828202610ccf816106f7565b91508282048414831517610ce657610ce5610b36565b5b5092915050565b6000610cf8826106f7565b9150610d03836106f7565b9250828201905080821115610d1b57610d1a610b36565b5b9291505056fea264697066735822122021e2f02ddb06602900a5ce59a913e9825602cafa8778e020875b85aee49efe9864736f6c63430008110033",
  "linkReferences": {},
  "deployedLinkReferences": {}
}